:10000000001D002099390000818500005139000051
:100010005139000051390000513900000000000042
:100020000000000000000000000000003D2A000069
:100030005139000000000000E5290000513900009E
:100040001D2B00001D2B00001D2B00001D2B000090
:100050001D2B00001D2B00001D2B00001D2B000080
:100060001D2B00001D2B00001D2B00001D2B000070
:100070001D2B00001D2B00001D2B00001D2B000060
:100080001D2B00001D2B00001D2B00001D2B000050
:100090001D2B00001D2B00001D2B00001D2B000040
:1000A0001D2B00001D2B00001D2B00001D2B000030
:1000B0001D2B00001D2B00001D2B00001D2B000020
:1000C0001D2B00001D2B00001D2B00001D2B000010
:1000D0001D2B00001D2B00001D2B00001D2B000000
:1000E0001D2B00001D2B00001D2B00001D2B0000F0
:1000F0001D2B00001D2B00001D2B00001D2B0000E0
:1001000053B94AB9002908BF00281CBF4FF0FF317E
:100110004FF0FF3000F00CB8ADF1080C6DE904CEE3
:1001200000F008F8DDF804E0DDE9022304B07047D0
:10013000704700BF2DE9F04F07468C460846099EE0
:1001400015463C461946002B40F0C6808242B2FA62
:1001500082F746D94FB1C7F1200E24FA0EFE00FAFD
:1001600007F3BD404EEA030CBC404FEA15481FFAA6
:1001700085FEBCFBF8F9220C08FB19C309FB0EFA3B
:1001800042EA03439A4528D9EB1809F1FF3004D21B
:100190009A4502D9A9F102002B44A3EB0A03A4B2A9
:1001A000B3FBF8F208FB123302FB0EFE44EA0344F1
:1001B000A64514D92C1902F1FF3303D2A64501D963
:1001C000931E2C44A4EB0E0443EA00401EB1FC40F5
:1001D000002334607360BDE8F08F4846DDE71346C6
:1001E000F0E702B9FFDE87BB831A01214FEA154E03
:1001F000AAB2B3FBFEFC200C0EFB1C330CFB02F876
:1002000040EA0343984563D9EB180CF1FF3004D260
:10021000984502D9ACF102002B44A3EB0803A4B229
:10022000B3FBFEFC0EFB1C330CFB02F244EA03445E
:10023000A2424FD92C190CF1FF3304D2A24202D9A9
:10024000ACF102032C44A41ABEE7C7F1200C20FA3B
:100250000CF800FA07F324FA0CFCBD404CEA030248
:100260004FEA154EABB2B8FBFEFC110C0EFB1C8026
:100270000CFB03F941EA0040814504FA07F423D955
:1002800028180CF1FF3104D2814502D9ACF10201EA
:100290002844A0EB090092B2B0FBFEFC0EFB1C0050
:1002A0000CFB03F842EA004398450FD9EB180CF118
:1002B000FF3204D2984502D9ACF102022B44A3EBE1
:1002C000080342EA014191E76146E2E76246F6E748
:1002D0006046A2E76346B6E7834205D90EB1C6E998
:1002E00000700021084676E7B3FA83F181B98342B2
:1002F00001D3BA420AD8BC1A60EB030301209C4622
:10030000002E68D0C6E9004C002164E70846F7E7F4
:10031000C1F1200C8B4022FA0CF41C4302FA01F5C7
:1003200000FA01F327FA0CF220FA0CFB4FEA144909
:100330001343BBFBF9F81FFA84FE09FB18BB1A0C28
:1003400008FB0EFA42EA0B42924507FA01F73ED942
:10035000A21808F1FF3004D2924502D9A8F1020098
:100360002244A2EB0A029BB2B2FBF9F809FB182265
:1003700008FB0EFE43EA024296452AD9A21808F16C
:10038000FF3304D2964502D9A8F10203224443EA7E
:100390000040A0FB0593A2EB0E029A42CE4698467F
:1003A00002D306D14F4504D2B9EB050E63EB040826
:1003B000013886B1B7EB0E0362EB080707FA0CFCB5
:1003C000CB404CEA0303CF40C6E900379CE74046E8
:1003D000C7E74346DBE73146FDE6000030B583B0B2
:1003E000344B93E8030002AB03E903009DF80410CB
:1003F000BDF8063043F4D0138568046913F4402F28
:1004000004D013F0010F01D083F4402323F48012B1
:1004100013F0010F09D0012303FA01FC236843EA1A
:100420000C0323602B6898470FE0012303FA01FCBB
:10043000236823EA0C032360F4E71F4B17E0012332
:1004400003FA01F18368DB6898474FF4004000210C
:1004500006F07EFD194B1C68621C1A60204607F0EE
:10046000C7F90246164B1B78002BE6D1154B2146E7
:10047000154807F075FA6320002106F069FD104A5F
:10048000137883F00103137000989DF8041002693B
:10049000146801228A40144202D0B3FA83F35B0944
:1004A000002BCCD1012303FA01F183681B69984723
:1004B000CBE700BFC09A0000DC9A00004008002093
:1004C000D8150020D89A0000E09A00002DE9F04FDE
:1004D0008DB005920393134602F004020192C3F318
:1004E000C20210F00303029340F02F8207468A46AF
:1004F0000132041D002841D027B1E31B04335345CA
:1005000000F22682039B5D1EDDF808B0CDF810B026
:10051000CDF818B000264FF00408C1460FB1039B78
:100520002360531E0793002A40F37D81059B13F03F
:10053000020221D00120E11B8B081AB1B1F5007F26
:1005400080F00C82BBF10F0F00F20B82002F00F045
:100550008281DBB20CAA5A4402F8103C002800F059
:10056000768163F07F030CAA5A4402F8103C049B86
:10057000013304930BF1010B04340EE001F0070A80
:100580005444CAF1080AB7E7252B05D101264FF0DC
:100590000408C14600E00026654605F1010C6B78B1
:1005A000002B00F06C81002EEED0A3F120015A291F
:1005B000F1D801A252F821F099050000970500003A
:1005C00097050000990500009705000097050000B9
:1005D00097050000970500009705000097050000AB
:1005E00045070000990500009705000099050000E7
:1005F0009905000097050000990500009905000085
:100600009905000099050000990500009905000072
:100610009905000099050000990500009905000062
:10062000970500009705000097050000970500005A
:10063000970500009705000097050000AD07000032
:10064000970500009705000097050000AD07000022
:10065000AD070000AD0700009705000097050000FA
:100660009705000097050000990500009705000018
:10067000970500009705000097050000970500000A
:1006800097050000970500009705000097050000FA
:1006900097050000970500003D0700009705000042
:1006A00097050000970500009705000097050000DA
:1006B000970500009705000097050000AD070000B2
:1006C000970500003D0700003D070000AD07000052
:1006D000AD070000AD070000990500003D070000D0
:1006E0002507000097050000990500009705000008
:1006F0000D0800003D0700000D08000097050000F0
:10070000970500000D080000350700003D070000B8
:1007100097050000970500003D07000097050000C1
:100720002D0700004FF00808C14635E74FF00408D8
:10073000C14631E74FF00408C1462DE72A786C2AFC
:1007400026D0002604EB0802013AC8F100010A4055
:10075000144627B1D11B4944514500F2FC80732B4C
:1007600059D0B9F1040F00F08280B9F1080F40F0C0
:10077000FB80169B073323F0070303F10801169152
:10078000D3E900010FB1C2E9000102F1080403E757
:100790001CF8022C6C2A04D000264FF00408C14635
:1007A000D0E700264FF00808C146CBE72B784C2B4A
:1007B0001CD0169B073323F0070303F1080216929F
:1007C000D3E90001E21D22F0070247B1D31B083331
:1007D000534515D82B784C2B15D0C2E9000102F1F6
:1007E000080400264FF00808C146D5E6169B0733DB
:1007F00023F0070303F108021692D3E90001E1E7B1
:100800006FF01B009EE0C2E90001E8E700264FF010
:100810000408C14696E7169B1A1D16921B6803939F
:10082000079A65467AE6564B039A9A4204D3554B8B
:100830009A420AD3002300E00023002B7FF476AE17
:10084000059B03F00202002075E60123F5E7069BF5
:10085000013306938EE608B9019B13B10AF1010A30
:1008600088E6039807F015FF831C9A4482E6169BDE
:10087000191D16911B6807B11360141D8CE6E31B4C
:10088000B3F5806F73D287B100223A609B083B704A
:10089000019B73B1069BFB70049BBB7003BB029D65
:1008A000DDF81090DDF80C8031E05344A3F108002E
:1008B00048E0069B7B70EFE701339B45EFD90CAA1C
:1008C0001A4412F8101C12F9102C002AF4DA01F064
:1008D0007F01E21B013252454CD804F8011BEBE7C3
:1008E000029BEAE7019BF3B1029EE31B3344013311
:1008F000534542D80CAB2B4413F8103C04F8013B91
:1009000032464146204607F0D7FE34440135AB4518
:1009100017D9B9F1000FE5D00CAB2B4413F9103CFB
:10092000002BDFDAF2E70CAB2B4413F8103C57F83E
:100930002380002247F82320404607F0AAFE461CE9
:10094000D3E7E01B0DB0BDE8F08F6FF00D00F9E7C5
:100950006FF01B00F6E76FF01B00F3E76FF0150078
:10096000F0E76FF01500EDE76FF01500EAE76FF0C4
:100970001500E7E76FF01B00E4E76FF01B00E1E70D
:100980008C97000040A500002DE9F04F8BB0054684
:1009900092460593149EDDF854B0039161B195F829
:1009A0000280CDF80880B8F1000F08D016F0010FD2
:1009B0000ED14FF0000904E006F038FFEFE74FF0EA
:1009C0000009EF783FB116F0020F2BD1002303E0AE
:1009D0004FF00109F5E7002313B9B9F1000F23D057
:1009E0002C78A300019305EB8404BAF1000F25D005
:1009F000019A2946504607F05FFE019B5344049339
:100A0000B9F1000F40F09680029B1BB116F0040F65
:100A100040F09E804FF000088AF80280DDF81090C8
:100A20000023B1E00123D7E7BAF1000F04D0039A05
:100A30002946504607F040FE039878E0B9F1000FD0
:100A400020D1029B002B3DD016F0040A2FD01C446D
:100A50004FF0000A2BE00744013408F10108C845B3
:100A60001ED2227800235BF822201946184606F091
:100A7000F2FE002DEFD0B245EDD225F81A000AF1B2
:100A8000010AE8E74FF00008C246DDF80890019738
:100A9000039F1496CDF854B0AB46169E159DDEE725
:100AA0000397019F149E15955D46DDF854B006F03E
:100AB000050301934FF00008DDF80C90CDF854B019
:100AC000AB4624E0DDF808A0F1E700231D4613B192
:100AD00016F0010F03D195B916F0020F0FD00023C5
:100AE0001946184606F0B7FE159B3BB1169B9A4572
:100AF00004D2159B23F81A000AF1010A81441DB1A2
:100B0000019B0BB909F1FF39013408F10108B8451F
:100B10000CD223785BF82320584B9A42D5D3584BFC
:100B20009A4201D30023D1E70123CFE748460BB017
:100B3000BDE8F08FDDF808904A46214606A807F088
:100B4000BBFD00238AF802304C44DDF8109067E7C3
:100B500098461A462146DDF81090484607F0ACFD4D
:100B6000C14444444FF000085AE7002131B316F065
:100B7000010F18D008F101010AA8804408F8102CD0
:100B80005FFA81F801340133BB4226D2227855F84E
:100B900022103A488142E8D33948814201D30021EA
:100BA000E4E70121E2E716F0040FEBD009F8012B8E
:100BB0009AF8022001328AF80220E3E716F0020FC9
:100BC00008D008F101010AA8804408F8102C5FFA47
:100BD00081F8D7E709F8012BD4E79AF801304344AC
:100BE0008AF80130049BA9EB0303DBB29AF80220D8
:100BF0009B1A8AF80330029B019A13441F44039BFB
:100C0000DF1B3A462146484607F056FDB944B8F185
:100C1000000F09D0A9EB0A0A059BA3EB0A0AD045ED
:100C200025D200245E4611E0A9EB0A007FE70023ED
:100C300009F8011B0AF1FF3A5146484606F00BFE3F
:100C4000002817DBAAEB000A81440134A0450ADD25
:100C50000AAB234413F8101C55F82120002EE6D0CF
:100C600036F81430E4E7059BA3EB0A005FE76FF06A
:100C70001B005CE76FF01B0059E700BF8C9700007A
:100C800040A50000014B1860704700BF0000002025
:100C900010B584B00446019002910021039101A98E
:100CA000054800F041FA039B029A934201DA0022C0
:100CB000E254039804B010BD297900002DE9F043F7
:100CC00083B0044608461546A38B13F0080F05D1E0
:100CD00003F0070600230093019369E0012909D07E
:100CE00043F02003A38385F31188BFF36F8F03B014
:100CF000BDE8F08343F01003A383F4E7204606F039
:100D000072FE57E0D4F818904A466946204606F02D
:100D100083FE00275AE023691F680621204606F05B
:100D20003BFE4FF0000951E023695F680421204633
:100D300006F032FE4FF0000948E023699F68052164
:100D4000204606F029FE4FF000093FE0002246E071
:100D5000002244E043F00803A38385F31188BFF326
:100D60006F8F002944D1009B2BB14B464246694608
:100D7000204606F0C8FE17B125492046B8474FF077
:100D80002003EFF3118583F31288BFF36F8FA38BDA
:100D900023F00803A383A38B13F0100F2ED023F0AE
:100DA0001003A3830120A68B06F0070600289AD023
:100DB0000228A3D0002896D00128A3D00328AAD0C7
:100DC0000428B1D00528B8D00027B946A38B03F07A
:100DD0000708B045BAD0A268002AB9D0012211464E
:100DE000002AB7D1009A002AB4D1002FB2D1D2E79D
:100DF0004A464146204606F0D7FDB4E713F0200FDF
:100E000004D023F02003A3830220CCE70020CAE70C
:100E1000357B000070B582B0044600230360436058
:100E200083604B78252B02D04E1C01251FE0881CC7
:100E3000E37045E1237843F004032370B5B1013634
:100E400014E0237843F008032370F7E7237843F096
:100E500010032370F2E7237843F020032370EDE7BB
:100E6000237843F040032370E8E7002545B3337847
:100E7000203B102BF9D801A252F823F04D0E0000B0
:100E80006B0E00006B0E0000570E00006B0E000092
:100E90006B0E00006B0E00006B0E00006B0E00006E
:100EA0006B0E00006B0E0000430E00006B0E000086
:100EB000350E00006B0E00006B0E0000610E00008E
:100EC000237803F04403442B5FD00196237843F04A
:100ED0008003237033782A2B5CD001A806F0BAFE79
:100EE000019B9E420FD0237843F080032370606003
:100EF000DBB2C3F34003002854DB00221343227803
:100F000063F341022270019B01931B782E2B14BFC7
:100F100000230123627863F341026270002B43D007
:100F2000019B5A1C01925B782A2B3FD001A806F046
:100F300091FEA0602378C3F3400300283EDB00222B
:100F40001343227863F341022270019803784C3BEB
:100F50002E2B00F29D80DFE803F0909B9B9B9B9BD8
:100F60009B9B9B9B9B9B9B9B9B9B9B9B9B9B9B9BD1
:100F70009B9B9B9B9B9B339B579B459B9B9B9B9BC3
:100F80009B9B899B9B9B9B9B820023786FF3861383
:100F900023709AE7637843F00103637033460133AB
:100FA0000193B1E70122A9E70198CFE7637843F005
:100FB00004036370104601300190C7E70122BFE7C8
:100FC000421C4378682B06D06378022161F3C60384
:100FD000637010461EE06378012262F3C6036370FB
:100FE000023017E0421C43786C2B06D06378032153
:100FF00061F3C603637010460CE06378042262F369
:10100000C6036370023005E06378052262F3C6030D
:101010006370013010F8013BE370A3F14102372AFD
:101020007DD8DFE802F05E7C7C7C5E5E5E7C7C7C52
:101030007C7C7C7C7C7C7C7C7C7C7C7C7C4F7C7C1D
:101040007C7C7C7C7C7C5E7C4F3A5E5E5E7C3A7C09
:101050007C7C7C654F717C7C717C4F7C7C4F6378A1
:10106000062262F3C60363700130D3E76378072278
:1010700062F3C60363700130CCE76378082262F341
:10108000C60363700130237843F002032370C1E785
:1010900063786FF3C6036370BCE7A278012161F344
:1010A0000202A270627802F07802402A10D0632B0C
:1010B00013D02378C3F34002154365F34103237033
:1010C00002B070BDA278022161F30202A270E9E7CA
:1010D000217841F001012170E9E7151E18BF0125B3
:1010E000E7E7A378042262F30203A3700125E0E797
:1010F000A378032262F30203A370637803F07803FA
:10110000402BD6D10125D4E7A378032262F3020352
:10111000A370637813F0780FCBD00125C9E723784B
:1011200043F001032370C4E72DE9F04F91B0064668
:101130000D4691460393002499F80000002800F022
:10114000D582252808D009F101092946B047002891
:10115000C0F2CD820134EFE7002304930593069398
:10116000079308930993494606A8FFF753FE029098
:101170009DF8193013F0010F00F09780039B1A1DA2
:1011800003921F68002FC0F288809DF8193013F079
:10119000040F00F09C80039B1A1D0392D3F800A05B
:1011A000BAF1000FC0F28A800023079308939DF8DC
:1011B0001A3003F007039DF81910C1F3C301012B86
:1011C00000F08E80022B00F0D380042B00F02481ED
:1011D000032B00F03B819DF8188018F0030B40F0C2
:1011E0003B819DF81B30253B532B00F2E681DFE865
:1011F00013F04001E401E401E401E401E401E4014D
:10120000E401E401E401E401E401E401E401E401B6
:10121000E401E401E401E401E401E401E401E401A6
:10122000E401E401E401E401E401E401E401E40196
:10123000E401E401E401E401E401E401E401E40186
:10124000E401E401E401E401E401E401E401E40176
:10125000E401E401E401E4018101E401E401E401C9
:10126000E401E401E401E401E401E401E4015E01DC
:101270006701E401E401E401E4016701E401E40140
:10128000E401E401BE018101A201E401E4014D0198
:10129000E4018101E401E40181019DF8183043F08B
:1012A00004038DF818307F426FE79DF91830002B4A
:1012B00002DB4FF0FF3768E7079F66E79DF81930BC
:1012C0006FF341038DF819304FF0FF3A6CE713F0DC
:1012D000020F02D0DDF820A066E74FF0FF3A63E787
:1012E000CB1E042B04D8DFE803F00B1D2935350095
:1012F000039B1A1D03921B68DA170493059206E0FC
:10130000039B1A1D03921B68DA17049305920129A7
:1013100028D002297FF45FAFBDF91030DA170493AB
:10132000059258E7039B073323F0070303F10802F4
:101330000392D3E90023CDE90423E8E7039B0733B5
:1013400023F0070303F108020392D3E90023CDE958
:101350000423DCE7039B1A1D03921B68DA1704932E
:101360000592D4E79DF8103004930023059332E7EB
:10137000CB1E042B04D8DFE803F00B1F35414100DE
:10138000039B1A1D03921B680493002305931EE020
:101390009DF81B30632B07D0039B1A1D03921B681B
:1013A00004930023059312E0039B1A1D03921B680C
:1013B0000493002305930AE0039B073323F00703FC
:1013C00003F108020392D3E90023CDE904230129A4
:1013D0001CD002297FF4FFAEBDF810300493002327
:1013E0000593F8E6039B073323F0070303F1080294
:1013F0000392D3E90023CDE90423E8E7039B1A1DF8
:1014000003921B68049300230593E0E79DF81030D6
:10141000049300230593DEE608290BD0039B0733D2
:1014200023F0070303F108020392D3E90023CDE977
:101430000423D0E6039B073323F0070303F10802DC
:101440000392D3E90023CDE90423C4E6039B1A1DCC
:1014500003921B680493BEE6029F3B464A46294618
:10146000304606F073FC0028C0F241810444B946BE
:1014700062E629462520B0470028C0F238810134B1
:10148000D8460DF13E0A4FF000099BE0DDF81090C0
:10149000BAF1000F07DB5146484607F003F909EBA4
:1014A000000AD8468EE0484607F0F3F8F7E7049BB9
:1014B0008DF82830D8460DF1290A0DF1280981E070
:1014C00018F0080F05D118F0100804D04FF02008CC
:1014D00001E04FF02B08049A059B002B02DB0492DD
:1014E000059308E0524263EB4303049205934FF0E7
:1014F0002D0800E0D8460DF13E0300930AAB06AA82
:10150000DDE9040106F0B8FB8146BAF1000FC0F234
:1015100088800DF13E03A3EB09039DF818206FF3BB
:1015200086128DF818209A457ED9AAEB03030793FB
:101530000DF13E0A46E0049828B9D846DFF8B4A178
:10154000AAF105093EE00DF13E0300930AAB06AA9D
:10155000002106F091FB81469DF81A3043F01003FC
:101560008DF81A3078238DF81B30D846CDE7049AD1
:101570009DF81930C3F3C303072B06D8DFE803F047
:10158000040B0D0F1115191B1460D8460DF13E0AFE
:101590004FF0000916E01470F7E71480F5E71460C7
:1015A000F3E7E31714605360EFE7E3171460536049
:1015B000EBE71460E9E71460E7E7D8460DF13E0A6F
:1015C0004FF00009B9F1000F00F08D80AAEB09037C
:1015D000B8F1000F00D001339DF81A2012F0100F5F
:1015E00025D0023307990B4412F0400F01D0089A1E
:1015F0001344002F31DDFF1A9DF8183013F0040F4B
:101600002BD113F0400F17D0B8F1000F17D0294697
:101610004046B04700286ADB0134D8464FF0300B13
:101620000FE00DF13E0ACDE70DF13E0ACAE712F0D8
:10163000080FD7D00133D5E74FF0200B01E04FF072
:10164000300B3B465F1E002B07DD29465846B0474E
:1016500000284CDB01343B46F4E7B8F1000F05D01D
:1016600029464046B047002841DB01349DF81A3036
:10167000C3F30012C3F3C003134305D0294630203F
:10168000B047002833DB01349DF81A3013F0100FF7
:1016900006D029469DF81B00B047002827DB0134FF
:1016A000079B03F1FF38002B07DD29463020B047A8
:1016B00000281CDB01344346F3E753464A462946DB
:1016C000304606F043FB002811DB0444002F07DD01
:1016D00029462020B047002809DB0134013FF5E707
:1016E000DDF8089028E5DDF8089025E5204611B0E2
:1016F000BDE8F08F019B000008B54FF02002EFF32A
:10170000118382F31288BFF36F8F02F03FFB03480F
:1017100006F026F900F0B4FFFCE700BF049B0000D0
:1017200008B5064B186018B1054B1B68092B00DC87
:1017300008BD044805F012F8FAE700BF8C08002045
:1017400044080020BC01002008B5024805F006F856
:1017500008BD00BFBC01002030B589B000220F4990
:101760000F4807F0E5FF0F4D00220023CDE90623C7
:10177000002404940E2303930294019400940A4BD2
:101780004FF440720949284607F0B5FD084928463C
:1017900004F02AFE204609B030BD00BF4917000002
:1017A000D005002008060020591B0000E01500208D
:1017B000309B0000014B53F8200070473C9B000019
:1017C000184BBFF35B8F53E8002F511C43E8001008
:1017D0000028F8D1BFF35B8F1ABB70B5002409E075
:1017E000114B03EB06135B6804221968284600F0CE
:1017F000D9F901340D4B0C4A9B1AB4EB231F0FDAB5
:101800002646094D05EB04152B7B002BF1D0230157
:10181000054AD3589B69002BE2D028469847DFE75A
:1018200070BD70474C0800203C9A00005C9A000094
:1018300038B108B5044A1060084600F09FFB00204C
:1018400008BD6FF0150070470400002008B5054B77
:101850001B781BB1034B01221A7008BD024804F02B
:101860007DFFF7E7D9150020BC0100200D4BBFF329
:101870005B8F53E8002F013243E800210029F8D1A3
:10188000BFF35B8F00B97047074BBFF35B8F53E823
:10189000002F013A43E800210029F8D1BFF35B8F04
:1018A000F1E700BF4808002044080020064B002054
:1018B0000246BFF35B8F53E8000F43E80021002985
:1018C000F9D1BFF35B8F70474808002038B5FFF7A8
:1018D000EDFF0546002400E001340B4B0B4A9B1A38
:1018E000B4EB231F0FDA094800EB041043685B795F
:1018F000002BF1D02301054AD3581B69002BEBD0F4
:1019000029469847E8E738BD5C9A00003C9A0000F9
:10191000034B18680028D4BF00200120704700BF87
:101920004808002008B50249024806F0DBFA08BD65
:10193000489B00005008002008B50023054A13709A
:10194000054A13604FF400410448FFF771FFFFF7A9
:10195000E9FF08BDDA15002048080020C382000016
:1019600008B5014600220023014806F0E2FA08BD4E
:101970005008002008B5024806F0D3FB08BD00BFA0
:101980005008002008B50146014806F03BFC08BDA0
:1019900050080020F8B50646E9B9002400E00134FB
:1019A0000F4B104A9B1AB4EB231F14DA0D4D05EBB5
:1019B00004156B685B79002BF1D03146284606F0A0
:1019C0007EFC0028EBD02701064BDB591B68314613
:1019D00028469847E3E73046FFF7D4FFF8BD00BF3D
:1019E0005C9A00003C9A000008B5024806F047FCEB
:1019F00008BD00BF5008002010B50446114B1B78ED
:101A000003B9D0B106F075FC034680B15CB90E4A4B
:101A1000BFF35B8F52E8001F013942E80010002835
:101A2000F8D1BFF35B8F21461846FFF7B3FF14B917
:101A3000FFF76EFF10B906F060FC10BDFFF746FF20
:101A4000F9E700BFD91500204408002010B582B086
:101A50001D4BBFF35B8F53E8002F511C43E8001070
:101A60000028F8D1BFF35B8F184B1B783BB9184B9C
:101A70001B6803B19AB10A2A1CD002B010BD4FF006
:101A80002003EFF3118483F31288BFF36F8F0020DC
:101A9000FFF7B2FF84F31188BFF36F8FEDE70022E9
:101AA0000023CDE900234FF400420023094805F04C
:101AB00065FCE2E7002BE0D0064807F045FE06484B
:101AC00004F04CFED9E700BF44080020DA150020DE
:101AD0008C080020D0050020BC01002010B5044671
:101AE000054B1B689847A0602146044806F0B8FAE9
:101AF000FFF7ACFF10BD00BF04000020500800201D
:101B0000124B1B7803B1704710B5FFF759FE002444
:101B100000E001340E4B0F4A9B1AB4EB231F0CDA82
:101B20000C4800EB041043685B79002BF1D02301D3
:101B3000084AD3585B699847EBE70020FFF75CFF42
:101B40000028FAD1014B01221A7010BDDA150020CD
:101B50005C9A00003C9A000008B5FFF731FE05F0E2
:101B600023FAFFF7DDFD0020FFF746FF0028FAD13A
:101B70004FF0FF324FF0FF33014804F013FEF2E75D
:101B8000BC010020054B064A9B1AB1EBD30F02D2D1
:101B900052F8310070470020704700BF3C9A0000A7
:101BA000F499000008B5074BC31A1B1101334268B2
:101BB000137143681960436801225A71FFF746FEAA
:101BC00008BD00BF3C9A00000EB400B582B00146CB
:101BD00003AB53F8042B01930348FFF7A5FA02B0B7
:101BE0005DF804EB03B07047A183000030B585B009
:101BF00011F0440F05D01A4B1C6834B9002005B011
:101C000030BD1849FFF7E0FFF9E7174B1968B2FB41
:101C1000F1F1B1FBF4FC154AA2FB0C32D20A4FF4ED
:101C2000616E0EFB12CE124BA3FB0E535B0904FB3D
:101C30001C114FF47A7C0CFB01F1B1FBF4F505FBB0
:101C400014110CFB01F1B1FBF4F102910195C3EB0E
:101C50000311AEEB810100910649FFF7B5FFCEE716
:101C6000900800205C9B000094080020C5B3A2915E
:101C700089888888689B000061B108B52AB1064A46
:101C800052F8232012B9054A00E0044A0449FFF73C
:101C90009BFF08BD704700BFE09B0000849B0000D5
:101CA0008C9B000011F0100F0BD108B511F0200F24
:101CB00003D00449FFF788FF08BD0349FFF784FFFD
:101CC000FAE7704788A100001CA500002DE9F0414B
:101CD00005460F46164698460699FFF7E3FF00248F
:101CE000444505DA23492846FFF76EFF0134F7E73C
:101CF000002409E01F492846FFF766FF0BE01E4954
:101D00002846FFF761FF01340F2C0CDC002C02DDAC
:101D100014F0070FEED0B442F1D23A5D17492846CD
:101D2000FFF752FFEFE716492846FFF74DFF002463
:101D300009E010492846FFF747FF0BE01149284604
:101D4000FFF742FF01340F2C12DC002C02DD14F0EF
:101D5000070FEED0B44206D23A5DA2F120035E2B0B
:101D6000ECD92E22EAE703492846FFF72DFFE9E7E1
:101D7000BDE8F081B49B0000989B0000909B0000A0
:101D80009C9B0000A09B00002DE9F0418046164678
:101D90001D46BDF9187059B90024002F1CDB86B10F
:101DA0000123079A934013F0100F18D10D4E09E04C
:101DB0000D4B079A53F822200C49FFF705FF044604
:101DC000EBE7084E39462846FFF7DCFE024631466F
:101DD0004046FFF7F9FE04442046BDE8F081044E7A
:101DE000F0E700BFA49B00001C9C0000B09B00001B
:101DF000AC9B00002DE9F04F85B005460C46164619
:101E000003939DF8388001F0020B01F0010AC1F341
:101E1000C00906F076FAE8B1024613492846FFF7F2
:101E2000D3FE0746BBF1000F16D142465146284665
:101E300006F076FACDF80480BDF9403000939DF8A5
:101E40003C30324649462846FFF79EFF384405B0ED
:101E5000BDE8F08F0027E5E7039A21462846FFF703
:101E6000C5FE0744E1E700BFB89B00002DE9F04341
:101E700085B006460C4617468B680A88C2F382185E
:101E800012F4E07F35D04A680978C1F3C2016AB321
:101E90002048121A42F3CF0202920191CDF800803D
:101EA000002239463046FFF7A5FF8146254655F802
:101EB000103BC3F3492343B1B8F1000F1CD11648BE
:101EC0002B463246154905F0DAFC6288C2F3CB0294
:101ED0002168C1F34921294482B9B8F1000F13D117
:101EE000304606F050FA05B0BDE8F0834FF0FF32FF
:101EF000D2E74FF00009D9E70948E1E700974B46E0
:101F0000304606F025FAE8E742463946304606F004
:101F100013FAE5E7F4990000D983000029110000C5
:101F2000A183000070B582B00446056842F20F73C9
:101F30008B4228BF0B460E4A0521684605F01EFD60
:101F4000064663685B680B220A49284606F0DBF9FF
:101F500063685B6832466946284606F0D4F96368D0
:101F60005B681B220449284606F0CDF902B070BD1B
:101F7000BC9B0000109C0000F49B0000074B01225A
:101F80001A6004E04008054A13685B001360044BC4
:101F90009842F7D8034B1860704700BF94080020A0
:101FA00040420F009008002070B506460D46002400
:101FB00006E0054B1868315D83685B68984701341B
:101FC000AC42F6D3284670BDB0080020014B196022
:101FD00000207047A0080020014B024A1A60704799
:101FE000B00800205498000008B5034B01221A7075
:101FF000024806F0C8F908BDDB150020709C0000FF
:1020000008B50248FFF78EFF08BD00BF709C0000B6
:1020100010B50C46044B1868FFF7CCFB03460F22A3
:1020200021460248984710BDA0080020709C00007F
:10203000034B01221A70034B034A1A60704700BF1A
:10204000DC150020E8080020D0080020014B1960B2
:1020500000207047EC08002008B518B9084B002292
:102060001A7008BD074B1B7823B141F2883007F086
:1020700059FBF6E7A420002104F06AFFF1E700BF56
:10208000DC150020DD15002038B504460A4B01227E
:102090001A700A4B1B782BB938BD651E2046FFF716
:1020A000DBFF2C46002003F0ABFE0028F4D0024BEF
:1020B0001B78002BF1D1EFE7DC150020DD150020A7
:1020C0002DE9F04106460D4604270DE02A4631462B
:1020D000002003F031FE04461CE03846FFF7D4FF31
:1020E0001CBB164B1B7803B3154B1B78002BEDD193
:1020F000DFF850804FF0FF324FF0FF33404604F0DE
:102100005FFA2A463146002003F016FE0446404698
:1021100004F0E0FA002CE0D1084B1B78002BDFD054
:10212000013F3846FFF798FFDAE714B9034B1B78F5
:1021300003B92C462046BDE8F08100BFDC15002025
:10214000DD1500209401002008B5034B01221A7010
:10215000024806F018F908BDDD150020B09C00000B
:1021600008B50248FFF7DEFE08BD00BFB09C0000C6
:1021700010B50C46044B1868FFF71CFB03460F22F2
:1021800021460248984710BDEC080020B09C000092
:1021900010B5044C02E054F8043B9847024B9C42B3
:1021A000F9D310BDF4990000F4990000064B1B68A8
:1021B0004BB110B55C1E044A52F8233098472346B1
:1021C000002CF7D110BD7047EC99000070B52A4B78
:1021D0001D7D05F01F0301229A406909274B03EB7F
:1021E0008103D043BFF35B8F53E8001F01EA000473
:1021F00043E80046002EF7D1BFF35B8F0A4200D1BF
:1022000070BD1F4805EB45029300C1181D4A72B10D
:102210004978C05C06F0BCFA4FF02003EFF311865A
:1022200083F31288BFF36F8F174B1C6810E00023F5
:1022300083F31188BFF36F8FEEE70F4B1B7D03EB2A
:10224000430399000E4B585C90470CB1246824B1AD
:102250001CB1A268002AF0D1F7E786F31188BFF31A
:102260006F8F074805EB4505AA00811800238350AE
:102270004B608B60C4E700BFB81300201409002036
:102280000409002091870000FC08002070B5044676
:10229000574B1D7D6A09BFF35B8F564B53F82230B5
:1022A000BFF35B8F05F01F02134113F0010F15D030
:1022B00005EB4503504A12F82330F3B1B4F1FF3F68
:1022C00031D104F011FB4FF02003EFF3118683F3BB
:1022D0001288BFF36F8F494B1C6845E001462846C2
:1022E00000F0A4F80028E3D005EB4503424A02EBD6
:1022F000830307C883E80700DAE705F01F0201231C
:1023000093406D093B4A02EB8505DB43BFF35B8FCE
:1023100055E8002F1A4045E800210029F8D1BFF305
:102320005B8F002062E005EB4503334A02EB830339
:102330009868410CC003324BC018324A4FF000037A
:1023400041F10001FDF7DCFE0121201A07F0BBF985
:10235000B7E7274B1B7D03EB4303274911F8230005
:1023600090470CB1246824B11CB16268002AF0D1F6
:10237000F7E786F31188BFF36F8F05F01F03012184
:1023800099406B09204A02EB8303BFF35B8F53E84C
:10239000002F0A4343E800200028F8D1BFF35B8FE9
:1023A0001A4B4BB1144B05EB450203EB8201497804
:1023B00013F8220006F0E0F9FFF708FF05F01F030D
:1023C000012404FA03F36D090A4A02EB8505DB4395
:1023D000BFF35B8F55E8002F1A4045E80021002924
:1023E000F8D1BFF35B8F04F0A1FC204670BD00BFA5
:1023F000B81300201009002004090020FC08002068
:102400003F420F0040420F0014090020798700006E
:10241000BFF35B8F044B53F82000BFF35B8F003892
:1024200018BF0120704700BF180900202DE9F041B6
:1024300082B00E4601A900F043F8441E24B207E022
:10244000B6F1FF3F32D04044B0422FD9013C24B214
:10245000002C2ADB019B04EB440203EB820513F8FA
:102460002200FFF7D5FF0028F0D16868410CC003B7
:10247000104FC019104A4FF0000341F10001FDF761
:102480003FFE8046AB68590CDB03D8190A4A4FF06F
:10249000000341F10001FDF733FE084B1B68B3F167
:1024A000FF3FCDD08342CBD8D0E70025284602B0ED
:1024B000BDE8F0813F420F0040420F0008000020BD
:1024C00008B9024B0B600020704700BFC49C00009D
:1024D00008B5024804F0FEFF08BD00BFC49C000020
:1024E000D0B108B54268042A05D0D2B1006804F022
:1024F000F1F8002008BD03680022BFF35B8F53E8AA
:10250000001F012903D143E800200028F7D1BFF3C1
:102510005B8F04D11046EDE76FF4E040704702484E
:10252000E8E70248E6E700BFE98FFFFFEA8FFFFF19
:1025300020B308B54268042A02D092B911480FE0CE
:1025400003680122BFF35B8F53E8001F002903D10A
:1025500043E800200028F7D1BFF35B8F0CD10020A7
:1025600008BD00684FF0FF324FF0FF3304F028F849
:102570000028F5D00448F3E70348F1E76FF4E040A2
:10258000704700BFEA8FFFFFE98FFFFF10B50446D9
:1025900088B16368042B0DD0082B0BD053B113F016
:1025A000020F0DD02146094806F050FE002323609B
:1025B0000023636010BD064B5B6806489847E8E758
:1025C00014220021206806F0A6F8F1E73409002063
:1025D000E4000020CC9C000010B5044678B163688C
:1025E000042B0BD0082B09D00BB9236863B12068EA
:1025F00006F0BFFE636843F00103636010BD0F4B3C
:102600005B680F489847EAE74FF0FF324FF0FF331F
:1026100021460C4803F094FE08B923681BB9074B08
:102620005B680948984714220021206806F073F877
:10263000636843F002036360D9E700BFE400002051
:10264000CC9C000034090020F49C000008B5402315
:1026500014220449044806F0EAFD0449044804F041
:1026600099FF08BD5409002034090020349D000062
:10267000249D0000014910220A60704710ED00E01F
:1026800072B6404080F31188BFF36F8FBFF34F8F56
:1026900030BF62B6BFF36F8F704700BF72B649405C
:1026A00081F3118820BF80F3118862B6704700BFA4
:1026B000F8B500AF0446D0F800C0466880686D46A3
:1026C0008AB06B4613F1100200F0FC8014212AB18D
:1026D000042903DDDFF81CE2C3F814E01AB108296D
:1026E00001DDC3F818C012B10C2900DDDE6112B1A2
:1026F000102900DD1862132940F3E78014205AB135
:1027000000214FF0050C6CF307016FF30F216FF3FD
:1027100017416FF31F61196100216FF300016FF31F
:1027200041016FF382016FF3C501012363F3881147
:1027300000F47D7363F352216FF3DE416FF3DF71B9
:1027400000236D4805F06FFEAD46D4F80CC0266935
:1027500060696D468AB06B4613F1100200F0B880D4
:1027600014212AB1042903DDDFF890E1C3F814E055
:102770001AB1082901DDC3F818C012B10C2900DD17
:10278000DE6112B1102900DD1862132940F3A38025
:1027900014205AB100214FF0050C6CF307016FF3C0
:1027A0000F216FF317416FF31F61196100216FF360
:1027B00000016FF341016FF382016FF3C501012343
:1027C00063F3881100F47D7363F352216FF3DE41EC
:1027D0006FF3DF710023484805F025FEAD46E06940
:1027E0006D4688B06B4613F1100277D00C211AB1F8
:1027F000042901DD424E5E6112B1082900DD9861B5
:102800000B296EDD0C205AB100214FF0030C6CF344
:1028100007016FF30F216FF317416FF31F61196108
:1028200000216FF300016FF341016FF382016FF339
:10283000C501012363F3881100F47B7363F3522114
:102840006FF3DE416FF3DF7100232B4805F0EBFDE2
:10285000AD46A06988B06B4613F1100244D00C213C
:102860001AB1042901DD274C5C6112B1082900DD91
:1028700098610B293BDD0C2052B10021032464F345
:1028800007016FF30F216FF317416FF31F61196198
:1028900000216FF300016FF341016FF382016FF3C9
:1028A000C501012363F3881100F47B7363F35221A4
:1028B0006FF3DE416FF3DF7100230F4805F0B3FDC6
:1028C000BD46F8BD6FF0004101E76FF01B0016E751
:1028D0006FF0004145E76FF01B005AE76FF00041D1
:1028E00085E76FF01B008EE76FF00041B8E76FF0EF
:1028F0001B00C1E7489D00001C9A0000789D000065
:10290000A89D0000B89D000040B2002807DB00F041
:102910001F02400901239340014A42F820307047CA
:1029200000E100E04209054B53F8222000F01F00AF
:10293000012303FA00F01040704700BF00E100E0FF
:10294000013140B2002808DB4901C9B200F1604002
:1029500000F5614080F80013704700F00F00490156
:10296000C9B2014B1954704714ED00E030BFFFF7B6
:10297000FDBF00BF08B50B4B0B4A22F07F029A60E7
:10298000BFF34F8FBFF36F8FD3F8882022F470020C
:10299000C3F8882003F01EFC04F034FB00F0E2FFD3
:1029A00003F076FC00ED00E0000000000A4A9368A6
:1029B000C3F8A80009490968C3F8AC1008494B6876
:1029C00043F080534B60002383F31188BFF36F8F74
:1029D0009368D3F8AC007047B81300209CA30000A4
:1029E00000ED00E013498A684FF030001044EFF327
:1029F000098C80E8F01F202080F31288BFF36F8FCE
:102A00000D4F4FF00066CA698A603E60D2F8A80098
:102A10000023C2F8A83080F3118804B5104601F0F5
:102A20004BF8BDE8044002F1300090E8F01F8CF351
:102A300009887047B813002004ED00E01EF0040F71
:102A40000CBFEFF30880EFF30980816911F8021CD5
:102A50000229FFD001B505F087FD01BD10B4A2F138
:102A600020040E4942F8081C21F0010142F8081C1C
:102A700042F8203C019B42F81C3C029B42F8183C67
:102A8000039B42F8143C4FF0807342F8043C046509
:102A90000023C0F8A83010BC704700BF417C000084
:102AA000124B9A6802B310F1160F11D0D2F8983079
:102AB000A3F1200C844505D8834205D98B4205D863
:102AC00000210BE0002109E0002107E0012105E0E1
:102AD000D2F898308B4294BF0021012109B900201F
:102AE0007047D2F89800704700207047B813002054
:102AF00008B50D461446084B986000F0DDFF2046EF
:102B000085F30988002163B681F31188BFF36F8FC5
:102B10000022002305F094F8B813002001B572B626
:102B20000B4A906900281EBF0021916106F005FC48
:102B300062B6EFF30580A0F110004FEAC00005492E
:102B4000014409C99847BDE801400349084700000E
:102B5000B81300206C9800005D2B0000044B9968AE
:102B6000D869884203D003494FF080520A60704709
:102B7000B813002004ED00E02DE9F041AAB000AF49
:102B800005460E461446CA4B7B610023022262F3BF
:102B900007036FF30F236FF317436FF31F633B615B
:102BA00000216FF300016FF341016FF382016FF3B6
:102BB000C501012363F38811082363F352216FF3E6
:102BC000DE416FF3DF71002307F11002B94805F011
:102BD0002AFCB94B9B6A13F4805F2AD1B64B9B6ADF
:102BE00013F4006F4CD1B44B9B6A13F4007F6ED189
:102BF000B14B9B6A13F4806F40F0E080AE4B9B6A50
:102C000013F4807F40F00181AB4B9B6A13F4005FAB
:102C100040F02481A84A936A43F47F4393620121E0
:102C2000284605F0B3FC20700020A837BD46BDE85B
:102C3000F081A24BFB620023022262F307036FF3D1
:102C40000F236FF317436FF31F63BB6200216FF312
:102C500000016FF341016FF382016FF3C50101239E
:102C600063F38811082363F352216FF3DE416FF39E
:102C7000DF71002307F128028E4805F0D4FBADE791
:102C80008F4B7B640023022262F307036FF30F2351
:102C90006FF317436FF31F633B6400216FF3000171
:102CA0006FF341016FF382016FF3C501012363F3F9
:102CB0008811082363F352216FF3DE416FF3DF7154
:102CC000002307F140027B4805F0ADFB8BE77D4B0D
:102CD000FB650023022262F307036FF30F236FF3F8
:102CE00017436FF31F63BB6500216FF300016FF3A0
:102CF00041016FF382016FF3C501012363F3881172
:102D0000082363F352216FF3DE416FF3DF71002379
:102D100007F15802674805F086FB674B986B9B6A82
:102D200013F4004F3FF464AFE84688B06B4613F1EC
:102D300010023DD00C212AB1042903DDDFF888C13F
:102D4000C3F814C012B1082900DD98610B2932DDE7
:102D50000C205AB100214FF0030C6CF307016FF304
:102D60000F216FF317416FF31F61196100216FF39A
:102D700000016FF341016FF382016FF3C50101237D
:102D800063F3881100F47B7363F352216FF3DE4128
:102D90006FF3DF710023474805F045FBC546002E61
:102DA0003FF426AF444A936A23F4004393621FE73B
:102DB0006FF00041BFE76FF01B00CAE7434B7B6732
:102DC0000023022262F307036FF30F236FF317430D
:102DD0006FF31F633B6700216FF300016FF3410145
:102DE0006FF382016FF3C501012363F38811082398
:102DF00063F352216FF3DE416FF3DF71002307F1BC
:102E000070022C4805F00FFBF8E6314BC7F8A430F0
:102E10000023022262F307036FF30F236FF31743BC
:102E20006FF31F63C7F8A03000216FF300016FF349
:102E300041016FF382016FF3C501012363F3881130
:102E4000082363F352216FF3DE416FF3DF71002338
:102E500007F1A002174805F0E6FADBE61D4BC7F8BC
:102E60008C300023022262F307036FF30F236FF30A
:102E700017436FF31F63C7F8883000216FF3000119
:102E80006FF341016FF382016FF3C501012363F317
:102E90008811082363F352216FF3DE416FF3DF7172
:102EA000002307F18802034805F0BDFAB2E600BF2F
:102EB000E89D00001C9A000000ED00E0009E00006C
:102EC000149E0000289E0000449E00005C9E0000AE
:102ED000789E0000909E000000B5ABB09A4B059321
:102EE0000023022262F307036FF30F236FF31743EC
:102EF0006FF31F63049300216FF300016FF341012F
:102F00006FF382016FF3C501012363F38811082376
:102F100063F352216FF3DE416FF3DF71002304AAE4
:102F20008A4805F080FA8A4B9B6A13F0007F26D10D
:102F3000874B9B6A13F0807F47D1854B9B6A13F4C4
:102F4000002F68D1824B9B6A13F4802F40F0898058
:102F50007F4B9B6A13F4003F40F0A9807C4B9B6A37
:102F600013F4803F40F0C980794A936A6FEA0343C3
:102F70006FEA1343936200202BB05DF804FB754B9E
:102F80000B930023022262F307036FF30F236FF307
:102F900017436FF31F630A9300216FF300016FF370
:102FA00041016FF382016FF3C501012363F38811BF
:102FB000082363F352216FF3DE416FF3DF710023C7
:102FC0000AAA624805F02FFAB2E7634B1193002377
:102FD000022262F307036FF30F236FF317436FF3BC
:102FE0001F63109300216FF300016FF341016FF332
:102FF00082016FF3C501012363F38811082363F392
:1030000052216FF3DE416FF3DF71002310AA4F48A6
:1030100005F009FA91E7514B17930023022262F35E
:1030200007036FF30F236FF317436FF31F631693B9
:1030300000216FF300016FF341016FF382016FF321
:10304000C501012363F38811082363F352216FF351
:10305000DE416FF3DF71002316AA3C4805F0E3F967
:1030600070E73F4B1D930023022262F307036FF3C7
:103070000F236FF317436FF31F631C9300216FF34C
:1030800000016FF341016FF382016FF3C50101236A
:1030900063F38811082363F352216FF3DE416FF36A
:1030A000DF7100231CAA294805F0BDF950E72D4B1C
:1030B00023930023022262F307036FF30F236FF3BE
:1030C00017436FF31F63229300216FF300016FF327
:1030D00041016FF382016FF3C501012363F388118E
:1030E000082363F352216FF3DE416FF3DF71002396
:1030F00022AA164805F097F930E71B4B29930023C5
:10310000022262F307036FF30F236FF317436FF38A
:103110001F63289300216FF300016FF341016FF3E8
:1031200082016FF3C501012363F38811082363F360
:1031300052216FF3DE416FF3DF71002328AA0348A9
:1031400005F071F910E700BFC09E00001C9A000056
:1031500000ED00E0D89E0000EC9E0000089F0000FB
:10316000289F0000509F00006C9F000000B587B0B2
:1031700000230B70134A05921A46022161F30702DD
:1031800063F30F2263F3174263F31F62049219463D
:1031900063F3000163F3410163F3820163F3C5014B
:1031A000012262F38811082262F3522163F3DE41A7
:1031B00063F3DF7104AA044805F035F907B05DF840
:1031C00004FB00BF989F00001C9A000090B583B0DC
:1031D00000AF0F294FDC314C103902233B718AB00C
:1031E0006B4613F1100248D04FF0110C22B1BCF124
:1031F000040F01DD2A485861022038711AB1BCF170
:10320000080F00DD9C611AB1BCF10C0F00DDD96123
:103210001AB103F12001002090B3BCF1100F39DD89
:1032200011206AB100214FF0040C6CF307016FF319
:103230000F216FF317414FF0010C6CF31F611961FF
:1032400000216FF300016FF341016FF382016FF30F
:10325000C501012363F38811C0F3090363F352210D
:103260006FF3DE416FF3DF7100230E4805F0DBF8EA
:103270000C37BD4690BD0C4CAEE76FF0004CB5E787
:1032800007F1080404EB000E1EF804EC01F801EB52
:103290000130C1E76FF01B00C3E700BFD89F0000FB
:1032A000F09F00001C9A0000BC9F00002DE9F04335
:1032B000A5B000AF05460C461646C84B7B610023FF
:1032C000022262F307036FF30F236FF317436FF3C9
:1032D0001F633B6100216FF300016FF341016FF346
:1032E00082016FF3C501012363F38811082363F39F
:1032F00052216FF3DE416FF3DF71002307F11002FB
:10330000B74805F090F8B74B9B6A13F0100F41D106
:10331000B44B9B6A13F0080F63D1B24B9B6A13F056
:10332000020F40F085806FF01508AE4B9B6A13F0DA
:10333000010F40F0F680AB4B9B6A13F0200F40F07A
:103340001781A84B9B6A13F0100F04D1A54B9C6A00
:1033500014F0020405D0A34B5C6814F4006440F040
:103360003081A04B9B6A13F0200F04D09D4A536A12
:1033700023F4005353629B4A936A43F0FF03936222
:103380000121284605F002F9307020469437BD46E9
:10339000BDE8F083944BFB620023022262F3070333
:1033A0006FF30F236FF317436FF31F63BB620021AB
:1033B0006FF300016FF341016FF382016FF3C501F9
:1033C000012363F38811082363F352216FF3DE4175
:1033D0006FF3DF71002307F12802814805F023F81D
:1033E00096E7824B7B640023022262F307036FF3AC
:1033F0000F236FF317436FF31F633B6400216FF3D9
:1034000000016FF341016FF382016FF3C5010123E6
:1034100063F38811082363F352216FF3DE416FF3E6
:10342000DF71002307F140026D4804F0FCFF74E7F0
:103430006F4BFB650023022262F307036FF30F2338
:103440006FF317436FF31F63BB6500216FF3000138
:103450006FF341016FF382016FF3C501012363F341
:103460008811082363F352216FF3DE416FF3DF719C
:10347000002307F158025A4804F0D5FF594BD3F8FE
:1034800034809B6A13F0800F48D0E94688B06B46C1
:1034900013F110023CD00C211AB1042901DD55486A
:1034A00058611AB1082901DDC3F818800B2932DDF3
:1034B0000C205AB100214FF0030C6CF307016FF39D
:1034C0000F216FF317416FF31F61196100216FF333
:1034D00000016FF341016FF382016FF3C501012316
:1034E00063F3881100F47B7363F352216FF3DE41C1
:1034F0006FF3DF7100233A4804F095FFCD46002CAE
:103500003FF413AF374A936A23F0800393620CE7CA
:103510006FF00041C0E76FF01B00CAE76FF01508BD
:1035200003E7354B7B670023022262F307036FF347
:103530000F236FF317436FF31F633B6700216FF394
:1035400000016FF341016FF382016FF3C5010123A5
:1035500063F38811082363F352216FF3DE416FF3A5
:10356000DF71002307F170021D4804F05CFFE2E602
:10357000224BC7F88C300023022262F307036FF35B
:103580000F236FF317436FF31F63C7F888300021D1
:103590006FF300016FF341016FF382016FF3C50117
:1035A000012363F38811082363F352216FF3DE4193
:1035B0006FF3DF71002307F18802094804F033FF3D
:1035C000BFE629464046FFF76BFA044600283FF461
:1035D000C8AE80F309880224C3E600BF04A000003F
:1035E0001C9A000000ED00E01CA00000149E0000EA
:1035F00050A0000068A0000080A00000909E000085
:10360000F0B599B000AF05460C468C4B7B610023AA
:10361000022262F307036FF30F236FF317436FF375
:103620001F633B6100216FF300016FF341016FF3F2
:1036300082016FF3C501012363F38811082363F34B
:1036400052216FF3DE416FF3DF71002307F11002A7
:103650007B4804F0E8FE002323707A4BDE6A16F004
:1036600002060BD1774BDB6A002B2FDB754BD86A38
:1036700010F0804052D16437BD46F0BD724BFB65FF
:103680000023022262F307036FF30F236FF3174344
:103690006FF31F63BB6500216FF300016FF34101FE
:1036A0006FF382016FF3C501012363F388110823CF
:1036B00063F352216FF3DE416FF3DF71002307F1F3
:1036C00058025F4804F0AFFE0020D4E75F4B7B64F4
:1036D0000023022262F307036FF30F236FF31743F4
:1036E0006FF31F633B6400216FF300016FF341012F
:1036F0006FF382016FF3C501012363F3881108237F
:1037000063F352216FF3DE416FF3DF71002307F1A2
:1037100040024B4804F087FE3046ACE74C4BFB625E
:103720000023022262F307036FF30F236FF31743A3
:103730006FF31F63BB6200216FF300016FF3410160
:103740006FF382016FF3C501012363F3881108232E
:1037500063F352216FF3DE416FF3DF71002307F152
:103760002802374804F05FFEAB6933F8022C4DF6AF
:1037700002739A4210D0334B93F82830002B4CD16F
:10378000304B93F82930002B4DD12E4B5B8D9BB2E3
:10379000002B4ED130466EE728686C4688B06B46E9
:1037A00013F1100233D00C211AB1042901DD294E86
:1037B0005E6112B1082900DD98610B292ADD0C2019
:1037C00052B10021032666F307016FF30F216FF357
:1037D00017416FF31F61196100216FF300016FF34F
:1037E00041016FF382016FF3C501012363F3881177
:1037F00000F47B7363F352216FF3DE416FF3DF71EB
:1038000000230F4804F00FFEA546286833E76FF049
:103810000041C9E76FF01B00D2E72246012128468C
:10382000FFF744FD27E7224601212846FFF7A4F9C8
:1038300021E72846FFF750FB1DE700BFA0A00000CE
:103840001C9A000000ED00E0B8A00000DCA0000021
:10385000ECA000000CA1000070B590B0354B5D6885
:10386000C5F30805002383F31188BFF36F8F02F0BF
:103870007F43B3F17F4F3FD102F00C03082B10D0F0
:1038800012F0080F35D00C4600260DF1270229460C
:10389000204604F07DFE05469DF827307BB310B02E
:1038A00070BD254B0F930023022262F307036FF3D1
:1038B0000F236FF317436FF31F630E9300216FF312
:1038C00000016FF341016FF382016FF3C501012322
:1038D00063F38811082363F352216FF3DE416FF322
:1038E000DF7100230EAA154804F09DFD0026344622
:1038F000CBE704460126C8E700263446C5E7202268
:10390000214601A804F0D8FE4EB1089BC3F308027B
:103910005AB96FEA53236FEA4323089305E0089BE3
:1039200023F4FF7323F00103089301A9284604F050
:103930000FFEB4E700ED00E028A100001C9A000093
:10394000024A536943F010035361704700ED00E0F1
:10395000EFF30880EFF3098101B57246FFF77CFFB2
:1039600001BD00BF002206E002F00F01094B0B442D
:103970002021197601322F2A0ADC53B2002BF3DB07
:1039800003F1604303F56143202183F80013F1E75D
:10399000704700BFFCEC00E0002080F31488BFF308
:1039A0006F8F05F0EDFE00200D490860BFF34F8FCB
:1039B0000C4880F3088800F02DF8202080F311884F
:1039C00009484FF40261401880F30988EFF314802E
:1039D0000221084380F31488BFF36F8FFEF7CAFFFC
:1039E00094ED00E0001D0020801E0020084BD3F85D
:1039F0009000C0F30720002306E0054AC2F8983083
:103A00000021C2F8A01001338342F6DB704700BFEB
:103A100000ED00E010B572B6002484F31388FFF7C0
:103A2000E5FF234608E003F120010E4A4FF0FF3086
:103A300042F821000133DBB2072BF4D9002308E060
:103A400003F16001074A4FF0FF3042F821000133D3
:103A5000DBB2072BF4D962B6BFF34F8FBFF36F8F82
:103A600010BD00BF00E100E008B50A4B9B6883422F
:103A700002D003F09FFA08BDEFF30583002BF8D0C6
:103A8000054B5A6842F080525A605A6A22F400424A
:103A90005A62EEE7B813002000ED00E008B5034BD2
:103AA000034A0121034804F0C8FD08BD00000420BA
:103AB0000000002058A1000008B5D0F89830203B45
:103AC0000448036020234360034B8360012104F01A
:103AD000B8FD08BD540E002000000B15084AC2F8BE
:103AE00098000B6823F01F03034343F01003C2F850
:103AF0009C308B6843F00103C2F8A030704700BFD0
:103B000000ED00E0B0B500AF0446072804D8FFF789
:103B1000E5FF2046BD46B0BD6D4688B06B4613F14B
:103B2000100234D00C211AB1042901DD1B48586160
:103B300012B1082900DD9C610B292BDD0C2052B14C
:103B40000021032464F307016FF30F216FF3174182
:103B50006FF31F61196100216FF300016FF34101E1
:103B60006FF382016FF3C501012363F3881100F441
:103B70007B7363F352216FF3DE416FF3DF71002338
:103B8000074804F050FCAD466FF01500C2E76FF037
:103B90000041C8E76FF01B00D1E700BF64A100003F
:103BA000149A00002DE9F04700AF814688469A46F6
:103BB000164600250FE06FF0004124E06FF01B0077
:103BC0002DE02146F0B204F019FD064610F1160F63
:103BD0004CD001360135454548DA05EB450409EB83
:103BE00084046268002AF5D0BAF1000FE9D02046BB
:103BF00004F0F3FC0028E4D16C4688B06B4613F166
:103C00001002D8D00C211AB1042901DD19485861DD
:103C100012B1082900DD9D610B29CFDD0C2052B1C6
:103C20000021032565F307016FF30F216FF317419F
:103C30006FF31F61196100216FF300016FF3410100
:103C40006FF382016FF3C501012363F3881100F460
:103C50007B7363F352216FF3DE416FF3DF71002357
:103C6000054804F0E0FBA5466FF015063046BD465A
:103C7000BDE8F0878CA10000149A000010B5034C39
:103C800001232278FFF78EFF207010BDDE15002083
:103C900008B50023094A1278FFF784FF10F1160FC8
:103CA0000AD0034606E0064AC2F898300021C2F85E
:103CB000A0100133072BF6DD08BD00BFDE15002084
:103CC00000ED00E0044B0522C3F89420BFF34F8FB2
:103CD000BFF36F8F704700BF00ED00E0BFF35F8F51
:103CE000024B0022C3F89420704700BF00ED00E0B3
:103CF00038B50E4B1D68082D15D8FFF7EFFF0024CF
:103D000009E00A4B596804EB440293001944204629
:103D1000FFF7E4FE0134A542F3D8054B1D70FFF711
:103D2000D1FF002038BD4FF0FF30FBE7C0A10000FD
:103D3000DE150020014B1860704700BF2C000020EA
:103D400010B54FF02003EFF3118483F31288BFF313
:103D50006F8F01230C4AC2F840354FF08042C2F801
:103D6000783504F0F9FC20B14FF080430122C3F80C
:103D700038264FF080430122C3F8802584F3118850
:103D8000BFF36F8F002010BD00E00140C0B24FF0C4
:103D90008042C2F81C05BFF34F8F0549CA6802F480
:103DA000E062044B1343CB60BFF34F8F00BFFDE7CE
:103DB00000ED00E00400FA0530B108B58001034BC6
:103DC00043F00103984708BD704700BFD09A000038
:103DD00000487047B80E0020014BC01A40117047D0
:103DE000700E002038B505460C46FFF7F5FF01467A
:103DF0004022034804F047FD01462846A04738BD4D
:103E0000F497000030B583B005460C46FFF7E4FF99
:103E10000146402300932346054A064804F04DFD21
:103E2000011E01DB03B030BD2846A047FAE700BF02
:103E300003890000F497000008B510B101280DD0E7
:103E400008BD0021084804F0A9FC836813F0070F9F
:103E5000F6D10021044804F004FDF1E701210248F5
:103E600004F0FFFCECE700BFF497000010B54FF042
:103E70002003EFF3118483F31288BFF36F8F134A8B
:103E8000136843F00203136013F0010F08D10023FD
:103E900084F31188BFF36F8F9BB904F03AFD10BD16
:103EA0004FF08043D3F80C24D3F80C3412F0010FF8
:103EB00001D10023ECE7FFF78BFF04F0BFFC0123E7
:103EC000E6E70021024804F0CCFCE8E7C80E002039
:103ED000F497000008B50A4BBFF35B8F53E8002F3F
:103EE00022F0020143E800100028F7D1BFF35B8FF6
:103EF00012F0010F00D008BD04F015FDFBE700BF74
:103F0000C80E002000B585B0CDF800D0CDF804D0A3
:103F100000230293012303936B46074A04F0E9FC54
:103F2000002805DB4FF480420023684602F03AFC8B
:103F300005B05DF804FB00BF3B89000070B5064684
:103F4000002201211046FEF7FBFC114801F086F922
:103F5000104B984219D105F0B5F80024012C12D865
:103F60002146304604F01AFC05462146304604F04E
:103F700022FC094903F0ECFD002805DB0123AB60BE
:103F80001C44E4B2EAE7002070BD6FF00400FBE7D8
:103F9000393E00000000AD0B3CA2000070B50546A4
:103FA000012807D14FF08043D3F81C3403F00303FA
:103FB000012B5AD005F088F928B92F4B1B78002B1C
:103FC00043D0002300E001231C46002B3FD04FF0DC
:103FD0002003EFF3118683F31288BFF36F8F24B9A8
:103FE0004FF080430222C3F808234FF08042D2F8FA
:103FF000183403F00303D2F8182412F4803F2DD1B3
:1040000000221AB1012B2BD0012D29D00CB3304640
:10401000FEF744FB4FF08043D3F81835002BE4D172
:104020004FF08043D3F80431002BDED04FF08043B3
:104030000022C3F80421D3F804210122C3F8182573
:104040000E49C1F880219A60CFE70123BCE7002622
:10405000C5E72120002102F07BFFDBE70122D0E74A
:1040600024B186F31188BFF36F8F70BD4FF080438A
:104070000222C3F80423F8E7DF15002000E100E086
:1040800010B50446104B0121BFF35B8F53E8002F9E
:1040900043E800100028F9D1BFF35B8F1AB1631E0B
:1040A000012B0DD910BD094804F085FB08490023F8
:1040B0004B608B60CB6001238B6003F065FDEEE706
:1040C0002046FFF76BFFEDE7CC0E0020F4970000D1
:1040D000600E002010B504460A2807D0074B186868
:1040E000E1B283685B689847204610BD034B1868AF
:1040F00083685B680D219847F0E700BFD00E002071
:1041000010B5044C2046FFF715FE2046FCF7BAFD1B
:1041100010BD00BFD540000008B50648064B18602A
:1041200005F059F818B1FFF7EBFF002008BD6FF05C
:104130001200FBE754980000D00E002028B101289F
:1041400001D103487047002070470248704700BF04
:104150000C98000024980000F0B585B00E46194672
:1041600043681B7B06F01F0545EA4315B2F5001FA7
:1041700022D007461446002302930393104604F00E
:104180005AFC8DF808007B689968F14011F0010F26
:1041900002D1B4F1A07F14D0002302AA1946284608
:1041A00001F0CCFA1B4B984231D10121284601F095
:1041B000A3FC002005B0F0BD284601F001FD002061
:1041C000F8E705F01F036A09012A14D04FF0A04256
:1041D00003F5E07352F8233013F0010FDCD10DF139
:1041E0000701284601F02CFC0B4B984205D00DF13D
:1041F00007030393D0E7094AEAE70DF1070001F04E
:1042000073FC044B9842F2D06FF00B00D2E76FF0D2
:104210000400CFE70000AD0B0400AD0B000300501D
:1042200030B583B004460DF1070101F009FC0546E5
:10423000204601F0F5FC0B4B98420FD19D4205D072
:10424000084B984207D1002003B030BD9DF807000D
:1042500001F042FCF4E76FF00400F5E76FF00400B2
:10426000F2E700BF0000AD0B2DE9F04387B0D0F8B6
:10427000048098F80C3001F01F0545EA4315002A28
:1042800044D00C4617460026039604960DF11701FC
:10429000204601F0D5FB8146334603AA3146284625
:1042A00001F04CFA304B98425BD1994536D017F467
:1042B000003F43D00DF10301384604F043FB0646AE
:1042C00040BB9DF803308DF8043017F4803F0CBFDD
:1042D000012300238DF80530384604F079FB8DF872
:1042E000060017F4002F1ED0D8F80430012101FA7F
:1042F00004F4C3F80845002201A9284601F0D6FAC3
:10430000194B984206D06FF0150603E02846FFF7D8
:1043100087FF0646304607B0BDE8F0839DF81700DA
:1043200001F0DAFBC3E717F4802FE4D0D8F80420BB
:10433000012303FA04F4C2F80C45DCE7384604F024
:1043400047FB8DF8080000231A4602A9284601F011
:10435000F5F9054B984201D10026DBE76FF0150611
:10436000D8E76FF01506D5E70000AD0B08B501F0F2
:10437000A9FB08B1002008BD01F07AFB084B984268
:104380000AD10021074801F055FB00220521062033
:10439000FEF7D6FA0020EEE76FF00400EBE700BF6F
:1043A0000000AD0BD58A000043681A68B1F5164FBE
:1043B0006FD03AD8B1F5165F6ED00AD9B1F5E14F9A
:1043C00075D024D947F6122399422BD14FF400031C
:1043D00013E0B1F5966F61D007D9B1F5166F63D0D0
:1043E000B1F5965F10D13C4B07E0B1F5967F58D000
:1043F000B1F5167F05D14FF41C33C2F824350020E7
:1044000070476FF0150070476FF015007047B1F5F9
:10441000615F4ED0B1F5964F01D1304BEDE76FF0B3
:10442000150070476FF015007047B1F5613F42D03D
:1044300009D9B1F5612F46D01FD9294B994248D1EE
:104440004FF08053D9E7B1F5963F37D005D9B1F594
:10445000E13F0FD14FF0EB73CFE74DF6C023994208
:104460002ED0B1F5614F02D14FF46B03C5E76FF069
:10447000150070476FF0150070471A4B994225D010
:10448000B1F5E12F02D14FF0E863B6E76FF0150008
:1044900070474FF41D03B0E7134BAEE74FF49E2374
:1044A000ABE74FF4A033A8E74FF41D23A5E70F4B6C
:1044B000A3E70F4BA1E74FF06C739EE70D4B9CE712
:1044C0004FF4650399E74FF0706396E74FF0806310
:1044D00093E76FF01500704700B0130000A04E0086
:1044E00040420F0090D003000050270000C075002C
:1044F00000F03A0000903A012DE9F04105460F46E0
:10450000D0F8108004F0E0FE20B9164B1B7843B1C0
:10451000002300E0012353B9284604F0F2FB0646CD
:1045200013E00123F7E784F31188BFF36F8F4FF097
:104530002003EFF3118483F31288BFF36F8F2646B5
:10454000284604F090FB0028EDD0414601F8107F8A
:104550000122284604F0A1FB86F31188BFF36F8F78
:10456000BDE8F081DF15002030B587B004460D4668
:1045700001F1120001F0A8FB1E4B984212D1AB7C56
:1045800004F590710C341C4AA23342F8331002EB4C
:10459000C3035C60A97C01238B40C2F80435002072
:1045A00007B030BD154B05930023022262F30703C9
:1045B0006FF30F236FF317436FF31F63049300210F
:1045C0006FF300016FF341016FF382016FF3C501D7
:1045D000012363F38811082363F352216FF3DE4153
:1045E0006FF3DF71002304AA054803F01CFF6FF08E
:1045F0000400D5E70000AD0B00F001409CA20000D4
:10460000349A000021F07F4100F5A870014B43F877
:10461000201070470010014000F5A870014B53F8BE
:1046200020007047001001404FF480338340024A5D
:10463000C2F84433704700BF001001404FF480338C
:104640008340024AC2F84833704700BF001001405F
:10465000014BD3F8040570470010014010B5012349
:1046600083406FEA030C104ABFF35B8F52E8001FD0
:1046700001EA0C0E42E800E4002CF7D1BFF35B8F97
:104680004FF4803202FA00F002F1804202F58052CB
:10469000C2F80803BFF35F8FBFF36F8F0B4214BFE5
:1046A0000120002010BD00BFF00E002070B50446B0
:1046B00004F0E1FB05464FF48033A340174AD2F8DB
:1046C0000423134205D10026284604F0DDFB3046C2
:1046D00070BD0123A340DB43114ABFF35B8F52E857
:1046E000001F01EA030042E80006002EF7D1BFF3E5
:1046F0005B8F59B904F150039B009BB203F18043D7
:1047000003F588331B6813B1012300E001231E4623
:10471000002BD9D0204604F09FFBD5E700100140C4
:10472000EC0E002001B9704701238340114ABFF30A
:104730005B8F52E8001F194342E8001CBCF1000FD8
:10474000F7D1BFF35B8F4FF4803383400A4AC2F83E
:104750000433BFF35B8F094B1B68BFF35B8F23FAF6
:1047600000F010F0010FDED0054B4FF40032C3F81B
:104770000021D8E7F00E002000100140EC0E0020D0
:1047800000E100E02DE9F843074614461E461046B6
:10479000194604F06DFB0546154B1A68A01A1C60FB
:1047A0005E60A5F50013B3F5400F09D3002402F0B5
:1047B00017FD3846FFF730FFA8420ED0BDE8F8835A
:1047C0000C4B1B681A0A1B0615EB030842F1000983
:1047D000094BC3E900890124E9E71CB13846FFF71A
:1047E00023FFEBE74FF400013846FFF70BFFF5E737
:1047F000D0060020F40E0020B806002038B50D4B7E
:104800001C68250A2406BFF35F8FFFF721FF0346CC
:10481000001945F10001B3F5801F0AD2064BD3E918
:104820000023904271EB030303D210F1807041F139
:10483000000138BDF40E0020B8060020F8B5064689
:1048400014461D461046194604F012FB0746FFF7B2
:10485000D5FFA04271EB05031DD2231A65EB0101C0
:104860001B4A934271F100032FD21A4B03EB06133C
:10487000D3E90223AB4208BFA2421AD039463046E0
:1048800004F007FB394604F0E3FA001945F1000390
:1048900004461D460DE00123B3400F4ABFF35B8F72
:1048A00052E8001F194342E800100028F8D1BFF376
:1048B0005B8F084B320103EB0616C6E902450699E9
:1048C0009950079B73600020F8BD6FF01500FBE75F
:1048D00001000001C0060020EC0E002030B583B0BE
:1048E00000231D4AC2F80835002B24DD1A4C02258E
:1048F000C4F80453194B4FF40032C3F8802100224E
:1049000001211120FEF71CF81120FDF7FDFF012306
:10491000A3602360124A136000240194114B00939A
:10492000114A0023204604F0EFFA2846FFF7A8FBBF
:10493000204603B030BD0D4A02EB03124FF0FF30AA
:104940004FF0FF31C2E902014FF480329A40024930
:10495000C1F804230133C7E70010014000E100E083
:10496000F00E002085470000FFFF7F00C0060020FA
:104970002DE9F04782B00446FFF798FE10B902B067
:10498000BDE8F087FFF73AFF82460E4604F073FA5F
:104990000546134B03EB0413D3E90289C24576EBBA
:1049A00009030BD20026284604F06EFA002EE6D04A
:1049B000009742464B462046B047E0E7084A2301AD
:1049C00002EB0411D6584F680020D0504FF0FF3250
:1049D0004FF0FF33C1E902232046FFF72FFEE2E745
:1049E000C006002010B50E4BD3F8043313F0020FAD
:1049F0000DD00B4BD3F804314BB1094B0022C3F857
:104A00000421D3F80431074A1368013313600024EA
:104A1000002C00DD10BD2046FFF7AAFF0134F7E7A8
:104A200000100140F40E002010B582B0B0F1FF3F3D
:104A300006D0012806DDB0F5000F05DA441E04E0BB
:104A40000F48F8E7002400E00D4CFFF7D7FE0D4BB0
:104A500019685B68401AB0F5000F00D300242044A9
:104A6000421CB2F5000F00D3054A00208A180190BD
:104A70000549009143F1000304F046FA02B010BD6D
:104A8000FFFF7F00D00600208547000008B5FFF734
:104A9000B5FE024B1B68C01A08BD00BFD00600203F
:104AA00000B510F4805F01D001220021C0F3811E07
:104AB000C0F3032C00F01F0310F0200F0DD14FF0B6
:104AC000A04041EA420141EA8E0141EA0C2103F58E
:104AD000E07340F823105DF804FB0148F1E700BFE4
:104AE00000030050F8B505460E461746002417E0AF
:104AF00003F03F03C7F80C3555F8242002F01F03DC
:104B000012F0200F60D14FF0A042012101FA03F30F
:104B1000C2F808350A462858FFF7C2FF0134E4B24C
:104B2000B44280F0BF81A00055F824301A0C222A2C
:104B300000F2BA8101A151F822F000BFF14A000051
:104B4000CD4B0000E34B0000154C00002B4C000047
:104B50005D4C00008F4C0000A94E0000A94E0000E3
:104B6000A94E0000A94E0000A54C0000BB4C00005F
:104B7000A94E0000A94E0000A94E0000A94E000059
:104B8000A94E0000A94E0000A94E0000A94E000049
:104B9000A94E0000D14C0000254D0000794D0000C9
:104BA000CD4D0000A94E0000A94E0000A94E000006
:104BB000214E0000374E00004D4E0000634E0000B5
:104BC000794E00008F4E0000B94A9EE703F03F0384
:104BD000C7F814350022114655F82400FFF760FF8E
:104BE0009CE703F03F03C7F8083555F8242002F08E
:104BF0001F0312F0200F0BD14FF0A042012101FA48
:104C000003F3C2F808350A462858FFF749FF85E73D
:104C1000A74AF3E703F03F03C7F810350022114617
:104C200055F82400FFF73CFF78E703F03F03C7F88F
:104C3000083555F8242002F01F0312F0200F0BD185
:104C40004FF0A042012101FA03F3C2F80C35002213
:104C50002858FFF725FF61E7954AF3E703F03F0384
:104C6000C7F80C3555F8242002F01F0312F0200F6E
:104C70000BD14FF0A042012101FA03F3C2F80C3529
:104C80000A462858FFF70CFF48E7894AF3E703F084
:104C90003F03C7F810350022114655F82400FFF7EE
:104CA000FFFE3BE703F03F03C7F80835002211463B
:104CB00055F82400FFF7F4FE30E703F03F03C7F890
:104CC0000C350022114655F82400FFF7E9FE25E7D0
:104CD00003F03F03C7F8603555F8243003F03F0276
:104CE00013F4005F11D102F01F0153090BD14FF0F3
:104CF000A04201238B40C2F80C35012211462858EE
:104D0000FFF7CEFE0AE76A4AF3E702F01F015309F4
:104D100006D14FF0A04201238B40C2F80835ECE7E2
:104D2000634AF8E703F03F03C7F8643555F82430C9
:104D300003F03F0213F4005F11D102F01F01530989
:104D40000BD14FF0A04201238B40C2F80C35012259
:104D500011462858FFF7A4FEE0E6554AF3E702F0B3
:104D60001F01530906D14FF0A04201238B40C2F826
:104D70000835ECE74E4AF8E703F03F03C7F868351B
:104D800055F8243003F03F0213F4005F11D102F014
:104D90001F0153090BD14FF0A04201238B40C2F8F1
:104DA0000C35012211462858FFF77AFEB6E6404A34
:104DB000F3E702F01F01530906D14FF0A04201238F
:104DC0008B40C2F80835ECE7394AF8E703F03F03B7
:104DD000C7F86C3555F8243003F03F0213F4005F38
:104DE00011D102F01F0153090BD14FF0A042012352
:104DF0008B40C2F80C35012211462858FFF750FEAF
:104E00008CE62B4AF3E702F01F01530906D14FF05D
:104E1000A04201238B40C2F80835ECE7244AF8E7AA
:104E200003F03F03C7F824350122002155F8240080
:104E3000FFF736FE72E603F03F03C7F8283501227C
:104E4000002155F82400FFF72BFE67E603F03F032F
:104E5000C7F830350122002155F82400FFF720FE65
:104E60005CE603F03F03C7F834350122002155F812
:104E70002400FFF715FE51E603F03F03C7F838356D
:104E80000122002155F82400FFF70AFE46E603F050
:104E90003F03C7F83C350122002155F82400FFF7F5
:104EA000FFFD3BE6002001E06FF08500F8BD00BF8C
:104EB0000003005000B587B0FCF722FE134B0593AA
:104EC0000023022262F307036FF30F236FF31743EC
:104ED0006FF31F63049300216FF300016FF341012F
:104EE0006FF382016FF3C501012363F38811082377
:104EF00063F352216FF3DE416FF3DF71002304AAE5
:104F0000034803F090FA0020FEF740FF50A3000092
:104F1000FC990000024BD3F80034002BFAD0704704
:104F200000E0014008B5034BC3F80405FFF7F2FFAA
:104F300008BD00BF00E00140014B024A1A60704703
:104F4000580000200090D00338B504F022F840B19A
:104F50004FF080430022C3F80C21C3F81021C3F89E
:104F6000382504F020F8002846D04FF08052D2F8BF
:104F70000414594BC3F82015D2F80814C3F82415AB
:104F8000D2F80C14C3F82815D2F81014C3F82C1555
:104F9000D2F81414C3F83015D2F81814C3F8341525
:104FA000D2F81C14C3F84015D2F82014C3F84415E5
:104FB000D2F82414C3F84815D2F82814C3F84C15B5
:104FC000D2F82C14C3F85015D2F83014C3F8541585
:104FD000D2F83414C3F86015D2F83814C3F8641545
:104FE000D2F83C14C3F86815D2F84014C3F86C1515
:104FF000D2F84424C3F8702503F0DFFF18B1374B13
:10500000374AC3F88C2603F0EBFF18B1354BFB226F
:10501000C3F8182503F0F7FF70B14FF08041D1F8C5
:10502000E43E23F00F034FF08052D2F8582202F0F2
:105030000F021343C1F8E43E03F0F8FF20B12A4BFE
:105040004FF40072C3F8402604F003F860B14FF04B
:105050008043D3F8003413F0010F05D04FF08043A4
:105060006FF00102C3F8002403F0FDFF38B14FF0E8
:105070001023D3F808224FF08043C3F858254FF08F
:105080001023D3F80032002B08DB4FF01023D3F8A5
:105090000432002B02DBFFF74FFF38BD0120FFF782
:1050A00041FF4FF010241225C4F80052FFF732FFE1
:1050B000C4F80452FFF72EFF0020FFF733FFBFF3C1
:1050C0004F8F0A49CA6802F4E062094B1343CB6070
:1050D000BFF34F8F00BFFDE700C00040005000400D
:1050E0004881030000F000400090024000ED00E025
:1050F0000400FA0510B50468B4FA84F3C3F11F0381
:105100005FFA83FC002B16DB012202FA03F324EA88
:105110000303BFF35B8F50E8002FA24204D140E8A5
:10512000003EBEF1000FF6D1BFF35B8FE3D181F8F3
:1051300000C0024810BD0248FCE700BF0000AD0BF4
:105140000200AD0B0368CB4013F0010F15D100B581
:10515000026801238B401343BFF35B8F50E800CFFD
:10516000944504D140E8003EBEF1000FF6D1BFF3F4
:105170005B8FEDD102485DF804FB0248704700BF29
:105180000000AD0B0400AD0B70B582B0054618B140
:10519000012816D002B070BD4FF080430222C3F840
:1051A00008230022C3F80421D3F804210122DA6085
:1051B00001238DF807309D420FD0002642F2107473
:1051C00029E04FF080430122C3F808230021C3F8EF
:1051D0000011D3F800115A60EAE70DF10706EDE778
:1051E00036B14FF08043D3F8183403F00303336033
:1051F0004FF08043D3F8183413F4803F22D10023BA
:1052000023B31EB19DF80730012B1FD1012003F0FD
:105210003DFF013C1AD0002DE2D0012D01D000232A
:10522000EEE736B14FF08043D3F80C3403F00103BE
:1052300033704FF08043D3F80C3413F4803F03D124
:105240000023DDE70123DBE70123D9E7012DA1D10D
:10525000014B00225A719DE7F80E0020064B1B7986
:105260003BB9054B186001221A7100225A7103489C
:1052700070470348704700BFF80E00200000AD0BD8
:105280000C00AD0B08B54FF08043D3F800318BB163
:105290004FF080430022C3F80021D3F800210122FF
:1052A000C3F80823154B5B7923B9144B5A711B685B
:1052B000002098474FF08043D3F804319BB14FF062
:1052C00080430022C3F80421D3F80421D3F8182422
:1052D000D3F8183412F0030F06D14FF080430122A7
:1052E000C3F818259A6008BD4FF080430222C3F826
:1052F0000823024B1B6801209847F4E7F80E0020B2
:105300000830034B33F8100000F00100704700BF75
:105310005C0000200830034B33F81000C0F340104D
:10532000704700BF5C0000200830044B33F81000C9
:1053300010F01C0018BF0120704700BF5C00002067
:105340000830034B33F81000C0F34000704700BF33
:105350005C0000200830024B33F81000400B70470F
:105360005C000020002204E04FF0FF3383420FD0A6
:1053700001322F2A0AD802F10803064931F8133006
:1053800013F4807FF0D0C3F34323EFE7002070478E
:10539000012070475C000020002313B14FF0FF3064
:1053A0007047074A52F83320824201D00133F4E7B4
:1053B000034A02EBC30252688A42F7D1184670478B
:1053C0005C0000200830064B33F8100010F4807F9A
:1053D00004D0C0F3432003EBC000704700207047A7
:1053E0005C00002070B504460D46FFF7EBFF20B1CE
:1053F0000668426829462046B047044B9B6823B1A3
:10540000024AD26829462046984770BD5C000020B9
:1054100000F108020E4B33F8123013F4807F16D0DF
:1054200010B5C3F34324104623F4F853084A22F876
:1054300010302046FFF796FF00B110BD044800234E
:1054400040F8343021467430FFF77CFEF5E77047B2
:105450005C00002010B50446FFF75CFF40B1204619
:10546000FFF778FF00F5A270064B002243F82020DA
:105470002046FFF7CDFF0834034B002223F8142009
:1054800010BD00BF006000405C00002070B582B01D
:1054900006460C461546FFF7BBFF24B329462046B7
:1054A000FFF77AFF031E13DB104A42F8334002EB8A
:1054B000C3014D605B029BB206F1080032F8101088
:1054C0000B4343F4807322F81030094802B070BDDA
:1054D0000DF107010748FFF70DFE054B9842F5D186
:1054E0009DF80730E0E70248F0E700BF5C000020CD
:1054F0000000AD0BD000002038B5044618E094FA47
:10550000A4F3B3FA83F301229A4024EA02040A4A7C
:1055100003F5A27352F82350C5F3052552F8230072
:10552000C0F3014003F047FE01462846FFF75AFF4B
:10553000002CE4D138BD00BF0060004082B084463A
:10554000114B93E8030002AB03E90300604600231C
:105550000BE002AA02EB830252F8082CD2F82015C5
:1055600040F8041BC2F820150133012BF1D90023A8
:10557000012B04D85CF8232022B90133F8E700207E
:1055800002B070470120FBE7C89A000070B50446DE
:105590000D461646084603F010FED0B9022E52D032
:1055A000022004F01F02610901294ED04FF0A041F2
:1055B00002F5E07251F8223023F4403343EA00430D
:1055C00041F82230032D44D0022E40D0032E45D086
:1055D00070BD29462046FFF705FF04F01F0362094E
:1055E000012A2AD04FF0A04203F5E07352F823308D
:1055F000C3F301439E42EBD104F01F036209012A69
:105600001DD04FF0A04103F5E07351F8232022F4A0
:10561000403241F8232004F01F036409012C10D00C
:105620004FF0A04103F5E07351F8232022F44032FB
:1056300042EA064641F82360CAE70A4AD4E7094924
:10564000E1E70849EEE70320ABE70649B0E7012DA3
:10565000BCD129462046FFF7C5FEB9E7022DB7D1D8
:10566000F7E700BF0003005070B584B02F4A6B46C7
:1056700092E8030083E80300002302A80BE004AAD9
:1056800002EB830252F8102CD2F8201540F8041BCC
:10569000C2F820150133012BF1D942E0244E05F563
:1056A000E07356F82320C2F30142FFF76FFF012396
:1056B000AB40C6F8203504AB03EB840353F8080C69
:1056C00010B390FAA0F0B0FA80F000EB441000F1B3
:1056D0000802184B33F81210C1F38201C50800F01C
:1056E00007020DF1080C012303FA02F21CF8053041
:1056F00023EA02030CF8053000F01F054309012BD3
:10570000CCD04FF0A046CAE70134012CD3D90A4BC4
:105710000022C3F87C21D3F87C3102A8FFF70EFFEA
:1057200008B10024F1E704B070BD00BFC89A0000C2
:10573000000300505C000020006000402DE9F041B3
:10574000044615461E4671B30F4603F01EFD0028A1
:1057500040F0998004F01F026309012B45D04FF0FF
:10576000A04002F5E07350F82330002F3FD00C2109
:1057700041F0030123EA0103002F3AD03978890070
:105780000B4302F5E07240F82230434A04F108016D
:1057900032F8113023F002039BB222F8113043F0AB
:1057A000010322F81130BDB12F78D5F804802046CE
:1057B000FFF7C6FDF8B1B8F1000F66D1364A04F123
:1057C000080132F8113023F01C039BB222F811308B
:1057D00043EA870322F81130002E5AD072683168EC
:1057E0002046FFF753FEBDE8F0812C48B9E70021C1
:1057F000BEE70021C4E7284A04F1080132F811305D
:1058000023F02003DB04DB0C22F81130B8F1000F89
:10581000D4D0032F3BD86B681D7837B905F5A27536
:105820001F4B002243F82520C8E7384603F0C4FC8C
:105830001B4B05F5A27253F8221021F0030143F827
:10584000221053F8221021F44F3121F4407143F813
:10585000221053F822C0210201F47C51000400F40C
:10586000403001434CEA010143F822106B039BB224
:10587000094A04F1080132F81100034343F0200300
:1058800022F811309AE70748ADE70648ABE705482C
:10589000A9E70548A7E700BF5C000020000300500F
:1058A000006000400400AD0B0000AD0BF8B50446ED
:1058B0001546002955D00E4603F076FC28B1204647
:1058C000FFF728FD002840F0A2802046FFF72CFDBE
:1058D00018B17378012B00F09C8006F1010CB71C05
:1058E00004F01F026309012B57D04FF0A04102F5CD
:1058F000E07351F82300BCF1000F50D0022343F0B5
:105900000103002F4DD04FF00C0E43EA0E03002E82
:105910004AD04FF4E06E43EA0E0320EA0300BCF1E4
:10592000000F44D073785B0043F00103002F40D098
:1059300096F802C04FEA8C0C43EA0C03002E3BD0D1
:10594000367836023343034302F5E07241F82230E1
:10595000334A04F1080132F8113043F0030322F80E
:105960001130002D57D0204603F01EFC002854D1E2
:105970002B7803F5A2712B4A42F82100284904F143
:10598000080031F8102022F02002D204D20C21F8B5
:1059900010206A7892B92448F8BD2449A7E700236B
:1059A000ADE74FF0000EB0E74FF0000EB3E7002375
:1059B000BAE74FF0000CBFE70026C3E7AF781948FD
:1059C00003F5A27550F8251021F4991121F4F8512E
:1059D00040F8251050F82560210201F47C51120492
:1059E00002F440320A43390501F480110A4332437C
:1059F00040F825205B039BB2094A083432F81410A2
:105A00000B4343F0200322F814300748C4E708484A
:105A1000C2E70748C0E70448BEE70548BCE700BF47
:105A20005C000020006000400000AD0B000300504F
:105A30000400AD0B014B9860D96070475C000020FA
:105A400038B504460D46FFF765FC40B104F1080087
:105A5000044B33F810305B0B2B70034838BD034800
:105A6000FCE700BF5C0000200000AD0B0400AD0BA4
:105A7000104B93F878300BB10F48704710B50D4CB0
:105A80006022002104F1100002F045FE0620FCF720
:105A90003BFF0A4B0022C3F87C21D3F87C214FF056
:105AA0000042C3F80423012384F878306367044874
:105AB00010BD00BF5C0000200500AD0B0060004081
:105AC0000000AD0B034B93F87800003818BF01209D
:105AD000704700BF5C00002008B501460148FFF791
